:020000040800F2
:1000000058070020B5010008F91E0008A11E0008CD
:10001000A51E0008AD0200083D28000800000000F1
:100020000000000000000000000000001927000888
:10003000B102000800000000152700081D27000875
:10004000CF010008CF010008CF010008CF01000850
:10005000CF010008CF010008CF010008CF01000840
:10006000CF010008CF010008CF010008CF01000830
:10007000CF010008CF010008CF010008CF01000820
:10008000CF010008CF010008CF010008CF01000810
:10009000CF010008CF010008CF010008CF01000800
:1000A000CF010008CF010008CF010008CF010008F0
:1000B000CF010008CF010008CF010008CF010008E0
:1000C000CF010008CF010008CF010008CF010008D0
:1000D000CF010008CF01000831280008CF01000837
:1000E000CF010008CF010008CF01000800F002F89E
:1000F00000F050F814A696E8000CB244B344DA4578
:1001000001D100F047F8BAE80F000FA696E83000DA
:10011000A5EB040504EB0607AAEB0704A7F101070A
:100120004FEA15154FEA3414A4F10104AC4201D38F
:1001300000F030F813F0010F18BFFB1A43F0010371
:1001400000F001F8DBE718471830000038300000F5
:10015000103A24BF78C878C1FAD8520724BF30C8F3
:1001600030C144BF04680C60704700007047000055
:100170000023002400250026103A28BF78C1FBD8B0
:10018000520728BF30C148BF0B6070471FB51FBD65
:1001900010B510BD00F050F81146FFF7F7FF02F060
:1001A0004FFB00F06EF803B4FFF7F2FF03BC00F062
:1001B00075F800000948804709480047FEE7FEE758
:1001C000FEE7FEE7FEE7FEE7FEE7FEE7FEE7FEE707
:1001D00004480549054A064B7047000021270008DE
:1001E000ED000008580100205807002058030020A7
:1001F0005803002010B5431C02E010F8011B71B138
:100200008107FAD14FF0013202C88C1A8C4314EAEC
:10021000C211F9D0C01A0A0603D0C01E10BDC01A00
:1002200010BD0A0401D0801E10BD0902FCD0401E82
:1002300010BD704770477047754600F02BF8AE460A
:1002400005006946534620F00700854618B020B5E2
:10025000FFF7BEFFBDE820404FF000064FF000075B
:100260004FF000084FF0000BAC46ACE8C009ACE81A
:10027000C009ACE8C009ACE8C00921F007018D460F
:10028000704710B50446AFF300802046BDE810402B
:10029000FFF789BF00487047280000200149182057
:1002A000ABBEFEE72600020070470000FEE700003C
:1002B00070470000014690F82100022816D1086816
:1002C000D1E90FC3026822F00E020260026822F038
:1002D00001020260012000FA03F2CCF8042081F848
:1002E00021000020002281F820207047042088632C
:1002F0000120002281F820207047000090F8211092
:10030000022923D1026840F2040C1168C4F2020CE5
:1003100021F00E01116013682F21C4F202018A42FC
:1003200023F00103136015DD3023C4F202039A4267
:100330001CD04423C4F202039A421BD05823C4F2B7
:1003400002039A421CD14FF4803321E004218163DF
:10035000012070470823C4F202039A420ED01C23E6
:10036000C4F202039A420BD1102311E04FF48073C0
:100370000EE000BF4FF480530AE000BF012307E006
:100380000CF168014FF080738A4208BF4FF480136C
:100390000121CCF8003080F82110416B00220029A7
:1003A00080F8202004BF0020704780B588470020D7
:1003B00080BD0000B0B5044600F01EF9054640F2CD
:1003C0001800C2F200000078611C18BF044400BF8E
:1003D00000F012F9401BA042FAD3B0BD2DE9F04F56
:1003E00082B00E68002E00F0FD8041F20042C4F29F
:1003F0000102042340F2004E904208BF03234FF64F
:10040000FF7CC4F2010E009300240123C1F2100C02
:100410004FF0000A4FF000094BE000BF41F200022C
:10042000C4F20102009F904208BF022704F00C03AF
:100430000F229A402BEA020207FA03F34FEA9A05C9
:100440001A4346F825204E6840F20C45F202DEF8C9
:10045000082054BF22EA080242EA0802C4F2010559
:10046000CEF808202A68B30254BF22EA080242EA02
:1004700008022A60B303DEF8042054BF22EA08020F
:1004800042EA0802F303CEF80420DEF800204FF021
:10049000010354BF22EA080242EA0802CEF8002013
:1004A0000E680AF1010A36FA0AF204F1040400F0B7
:1004B000998003FA0AFB16EA0B08F1D04E686645EC
:1004C00012DC122E56D8DFE806F0350B4D49555593
:1004D000555555555555555555555545510000BF20
:1004E000D1F80C9046E000BF4FF6FF72C1F2210236
:1004F00096420FDC0022C1F2110296421AD000226D
:10050000C1F21202964215D00022C1F22102964297
:1005100010D02FE00022C1F2220296420AD000221F
:10052000C1F23102964205D00022C1F23202964257
:1005300020D100BF8A684AB1012A14BFC0F814B0A4
:10054000C0F810B04FF0080914E000BF4FF00409E4
:1005500010E000BFCA6802F104090BE04FF0000987
:1005600008E000BFCA6802F1080903E0CA6802F1A6
:100570000C0900BF02462646B8F5807F24BF04322E
:10058000203E17680F25B54027EA050509FA06F64B
:1005900035431560CA79D2067FF582AF41F2180360
:1005A000C4F202031A68AEF57E7642F001021A60C8
:1005B0001A6802F001020192019A2AF0030256F829
:1005C00002B040F60002C4F20102904208D040F6A8
:1005D0000042C4F2010290427FF420AF012725E7D8
:1005E000002723E702B0BDE8F08F0000002A08BF13
:1005F000090401617047000040F25410C2F200008B
:100600000068704740F2180040F25411C2F2000036
:10061000C2F2000100780A681044086070470000C8
:1006200080B542F20000C4F20200016841F01001FE
:100630000160032000F08CF80F2000F005F800F0B6
:1006400027F8002080BD000070B540F21806C2F205
:10065000000640F220013278C2F200014FF47A73B2
:100660000968B3FBF2F20446B1FBF2F1084600F070
:1006700085FB0F2C4FF0010508D838B94FF0FF303B
:1006800021460022002500F037F87460284670BD2E
:1006900082B041F21800C4F202000168022241F067
:1006A00001010160016801F00101019101994168B6
:1006B00041F080514160406800F080500090009807
:1006C0000420C4F20100016862F31A61016002B003
:1006D00070470000002848BF704700F01F0101224A
:1006E00002FA01F11C2202EAD0004EF20012CEF210
:1006F000000281507047000010B54EF60C5CCEF23F
:10070000000CDCF80030C3F3022E8EF00704042C3A
:1007100028BF0424BEF103034FF0FF3E0EFA04F499
:1007200038BF0023A14399400EFA03F39A431143C3
:1007300000F00F0200F160430901043A03F564433D
:100740006244002848BF02F10C03197010BD00007C
:100750004EF60C51CEF200010A684FF6FF031A4024
:1007600060F30A2242F0806040F0FD70086070473C
:10077000002804BF012070472DE9F04381B042F208
:100780000008C4F202080446D8F800000D4600F044
:10079000070081420CD9D8F8000020F00700284358
:1007A000C8F80000D8F8000000F00700A8426CD19B
:1007B000206841F204098107C4F2020917D54107F4
:1007C00005D5D9F8001041F4E061C9F8001001071F
:1007D00005D5D9F8001041F46051C9F80010D9F8D6
:1007E0000010A26821F0F0011143C9F80010C00701
:1007F00042D1D8F8000000F0070085420CD2D8F8AA
:10080000000020F007002843C8F80000D8F80000D6
:1008100000F00700A84238D12068410707D5D9F871
:100820000010E26821F4E0611143C9F800100007EC
:1008300008D5D9F80000216920F4605040EAC100D1
:10084000C9F80000D9F8002002F00C00082841F295
:100850000020C0F27A004DD143F2FA03C2F3834183
:10086000C0F60003595CD20338D440F60010C0F241
:100870003D0048433EE000BF606859F8041C022870
:1008800008D0012826D1890306D4012001B0BDE893
:10089000F08300BF8901F8D5D9F8001021F00301D9
:1008A0000843C9F80000FFF7A7FE064641F2883763
:1008B000D9F80000616800F00C00B0EB810F98D00F
:1008C000FFF79AFE801BB842F2D9032001B0BDE8C1
:1008D000F08300BF8907D8D5DEE700BFD9F8002034
:1008E00043F2F803C2F34042C0F600039A5C484367
:1008F000B0FBF2F0D9F8001043F2E002C1F30311AB
:10090000C0F60002515C40F2200220FA01F140F2F0
:100910001C00C2F200000068C2F200021160FFF782
:1009200093FE002001B0BDE8F083000040F22000FB
:1009300041F20401C2F20000C4F202010068096839
:1009400043F2F002C1F30221C0F60002515CC8403C
:100950007047000040F2200041F20401C2F20000A2
:10096000C4F202010068096843F2F002C1F3C22137
:10097000C0F60002515CC84070470000002804BF68
:10098000012070472DE9F04182B00446007841F221
:100990000006C007C4F202060CD0706800F00C001C
:1009A000042840F081803068800303D56068002807
:1009B00000F04681207880071BD5706810F00C0F7E
:1009C00009D0706800F00C00082840F0878070683B
:1009D000C00300F183803068800703D520690128B7
:1009E00040F02E813068616920F0F80040EAC100D3
:1009F00030602078000713D4207840072CD4E569B4
:100A0000002D00F01881706800F00C00082840F0FC
:100A1000A780012D40F00481012002B0BDE8F081E3
:100A2000A069002800F084800020C4F24220012147
:100A3000C0F88014FFF7E0FD054600BF706A80072C
:100A400000F1B280FFF7D8FD401B0228F6D9032041
:100A500002B0BDE8F08100BFF0695FEAC00808D4C9
:100A6000F06940F08050F061F06900F08050009033
:100A7000009847F20007C4F200073868C00549D45F
:100A8000386840F480703860FFF7B6FD054600BF57
:100A90003868C0053ED4FFF7AFFD401B6428F7D986
:100AA000032002B0BDE8F081706800F00C00082857
:100AB00003D17068C0033FF576AF616830680029E4
:100AC00000F00C81B1F5A02F00F00081B1F5803F5E
:100AD00040F01A8140F480301CE100BF20690028FA
:100AE00040F20000C4F2422000F088800121016041
:100AF000FFF782FD054600BF306880073FF572AF03
:100B0000FFF77AFD401B0228F6D9032002B0BDE8AA
:100B1000F08100BFE168306A002900F09D8005295E
:100B200000F09280012940F0AF8040F00100B1E078
:100B30000020C4F242200021C0F88014FFF75CFDC1
:100B4000054600BF706A80077FF556AFFFF754FD7A
:100B5000401B0228F6D9032002B0BDE8F08100BF97
:100B60000027C4F2422700203866FFF745FD022D1A
:100B700005460DD13068800140F1DE80FFF73CFD75
:100B8000401B02284FF00300F4D902B0BDE8F08109
:100B9000306880014FD5FFF72FFD401B02284FF032
:100BA0000300F5D9F1E700BF40F22000C2F20000D7
:100BB000006844F6D351C1F26201A0FB0101480A6A
:100BC000019000BF00BF0198411E002801913FF431
:100BD00013AF00BF0198411E002801913FF40CAFF4
:100BE00000BF0198411E002801913FF405AF00BFEE
:100BF0000198411E00280191E4D1FDE60021016029
:100C0000FFF7FAFC054600BF306880077FF5F1AEBC
:100C1000FFF7F2FC401B02284FF00300F4D9B4E7C1
:100C20007068216A00F480328A4209D1616A00F456
:100C30007010884204D1002002B0BDE8F08100BFEE
:100C4000012002B0BDE8F08140F004003062306A5B
:100C500040F001001EE000BF20F001003062306A69
:100C600020F004003062FFF7C7FC054641F28837E8
:100C7000306A800720D5FFF7BFFC401BB8424FF019
:100C80000300F5D981E700BF20F001003062306A2F
:100C900020F004003062FFF7AFFC054641F28837D0
:100CA000306A800708D4FFF7A7FC401BB842F7D989
:100CB000032002B0BDE8F081B8F1000F3FF59FAE10
:100CC000F06920F08050F06199E600BF40F4802088
:100CD0003060306840F480301CE000BF20F4803089
:100CE0003060306820F480203060FFF785FC0546D6
:100CF000306880037FF55EAEFFF77EFC401B642802
:100D00004FF00300F4D940E720F4803030603068C1
:100D100020F480203060FFF76FFC054630688003C8
:100D20003FF548AEFFF768FC401B6428F6D9032066
:100D300002B0BDE8F08100BF206AB0F5803F05D168
:100D40007168A26821F40031114371607168626AB0
:100D500021F4741111430843706001203866FFF7D5
:100D60004BFC0446306880013FF565AFFFF744FC5B
:100D7000001B02284FF00300F4D906E7411E0020B3
:100D8000B0EB116F1CBF012070474EF21002CEF283
:100D9000000251604EF62351CEF20001F0230B7099
:100DA000072190601160704790F83C20012A04BF31
:100DB00002207047B0B501F108053CCDD1E900CE65
:100DC00023F47C5322F470521A432EF4F0431A4356
:100DD0002CF4E0431A4324F4C0431A432A43C9695C
:100DE00022F48042036811435964002180F83C10CA
:100DF0000020B0BD90F83C20012A4FF0020236D00E
:100E000010B580F83D200268D2F804E0D2F808C09E
:100E10000C682EF07003234340F2FF74C4F2000408
:100E2000A24253600ADCB2F1804F13D040F200437B
:100E3000C4F200039A420DD011E000BF42F6004315
:100E4000C4F201039A4205D040F60003C4F2000345
:100E50009A4204D149682CF0800319439160012122
:100E6000002280F83D1080F83C20BDE8104010467C
:100E700070470000002804BF0120704710B590F8AB
:100E80003D1031B9002180F83C10044600F070F8A4
:100E90002046022180F83D10016840F2FF740B6883
:100EA000C4F2000442F6004CA142C4F2010C15DC6D
:100EB000B1F1804F1AD040F20042C4F200029142D8
:100EC00014D0A14218DCB1F1804F1DD040F2004295
:100ED000C4F20002914217D01AE000BF614505D06C
:100EE00040F60002C4F200029142EAD1826823F087
:100EF00070031343A142E6DD614505D040F60002D0
:100F0000C4F20002914203D1026923F440731343F7
:100F1000846923F08002D0F804E0C368224361456D
:100F20000A60CB62C1F828E002D14269CCF83020D7
:100F300001224A610B69DB0703D00B6923F001032F
:100F40000B6180F8462080F83E2080F83F2080F832
:100F5000402080F8412080F8422080F8432080F82B
:100F6000442080F8452080F83D20002010BD00007E
:100F7000006842F60041C4F20101884218BF704780
:100F800081B041F21800C4F20200016841F400612E
:100F90000160006800F400600090009801B07047A4
:100FA00090F83C20012A4FF002026CD080B580F806
:100FB0003D20D0F800C04FF67772DCF8083023EA05
:100FC0000202CCF808200B684F2B29DC1F2B45DDD3
:100FD000202B46D0302B44D0402B40F0AF80D1F8AE
:100FE00004E0C968DCF82030DCF8202022F001029F
:100FF000CCF82020DCF8182022F0F00242EA01119F
:1010000023F00A0242EA0E02CCF81810CCF8202095
:10101000DCF8081041F0470121F0300128E000BF62
:101020006F2B33DDB3F5005F74D0B3F5805F21D053
:10103000702B40F08380D1E901E3C968DCF8082017
:1010400043EA0E0322F47F4243EA01211143CCF824
:101050000810DCF8081041F0770109E00BB1102B03
:101060006CD1DCF8081021F07001194341F0070140
:10107000CCF808100022012180F83D10002180F8F2
:101080003C10BDE880401046704700BF502B21D077
:10109000602B53D1D1F804E0C968DCF82030DCF8CB
:1010A000202022F01002CCF82020DCF8182022F4B6
:1010B000704242EA013123F0A00242EA0E12CCF85B
:1010C0001810CCF82020DCF8081041F0670121F05E
:1010D0001001CDE7D1F804E0C968DCF82030DCF875
:1010E000202022F00102CCF82020DCF8182022F089
:1010F000F00242EA011123F00A0242EA0E02CCF8A1
:101100001810CCF82020DCF8081041F0570121F02D
:101110002001ADE7D1E901E3C968DCF8082043EA22
:101120000E0322F47F4243EA01211143CCF8081058
:10113000DCF8081041F480419AE700BF01229AE7E9
:1011400080B586B0014640F60000C4F2010009688F
:1011500000F5105291424FF00001CDE90411CDE9A4
:10116000021101D006B080BD41F21801C4F20201A3
:101170000A6842F004020A60096801F00401019162
:1011800001994FF48071029102210391059102A906
:10119000FFF724F906B080BD90F83C30012B04BF66
:1011A000022070474FEAB202032A00F2F1802DE9D3
:1011B000F043DFE802F003A53B7500BF036842F689
:1011C00000461D6A1A6AC4F2010622F001021A6280
:1011D0001A465C6852F818CFB3428E68D1F800E026
:1011E00025F0020545EA06050CD1CE68D1E905785F
:1011F00024F4407425F00C0526F004063C433543E6
:1012000044EA08042CF0730747EA0E075C609F610C
:101210004F6809695F631D629F6947F008079F6116
:101220009F6927F004079F61A6E000BF036842F6AC
:1012300000461D6A1A6AC4F2010622F480721A621C
:101240001A46D3F804C052F81CEFB3428E680C68FB
:1012500025F4007545EA06250FD1CE68D1E9059839
:10126000360240F2FF4725F44065BE4335432CF477
:10127000405748EA090647EA061C2EF07307274341
:10128000C3F804C0DF614F680969DF631D62DF696D
:1012900047F00807DF61DF6927F00407DF616BE0D3
:1012A000036842F60047D3F820C01A6AC4F2010767
:1012B00022F480521A621A465C6852F81C5FD1F818
:1012C00000E08E68BB4204D14F6924F4804444EAB4
:1012D00087142CF4005747EA063725F4E64646EA19
:1012E0000E265C60DE614E6809691E641F62DF695C
:1012F00047F40067DF61DF6927F48067DF613AE068
:10130000036842F600461D6A1A6AC4F2010622F01A
:1013100010021A621A46D3F804C052F8184FB342AA
:101320008E68D1F800E025F0200545EA06150FD1BA
:10133000CE68D1E905986FF0400725F0C00507EAAF
:10134000061635432CF4406748EA090647EA860C3E
:1013500024F4E64444EA0E27C3F804C09F614F68B2
:1013600009699F631D629F6947F400679F619F69D8
:1013700027F480679F6109021368194311600021F7
:10138000BDE8F043002280F83C200846704700BFCB
:101390000121002280F83C2008467047002804BF45
:1013A0000120704710B590F83D1031B9002180F848
:1013B0003C10044600F070F82046022180F83D10F1
:1013C000016840F2FF740B68C4F2000442F6004C5E
:1013D000A142C4F2010C15DCB1F1804F1AD040F2E9
:1013E0000042C4F20002914214D0A14218DCB1F1D3
:1013F000804F1DD040F20042C4F20002914217D04B
:101400001AE000BF614505D040F60002C4F20002B8
:101410009142EAD1826823F070031343A142E6DDD2
:10142000614505D040F60002C4F20002914203D1AA
:10143000026923F440731343846923F08002D0F8D7
:1014400004E0C368224361450A60CB62C1F828E02A
:1014500002D14269CCF8302001224A610B69DB07D6
:1014600003D00B6923F001030B6180F8462080F85C
:101470003E2080F83F2080F8402080F8412080F80E
:10148000422080F8432080F8442080F8452080F8EE
:101490003D20002010BD000070470000C1B10429AC
:1014A00008D0082914BF41224022825C012A05D0BD
:1014B00016E000BF3F22825C012A11D102220829D6
:1014C00010D0042914BF80F8412080F83F200BE0A1
:1014D00090F83E20012A03D1022280F83E2003E04A
:1014E0000120704780F84020006801F01F010122B0
:1014F000036A8A4023EA02010162036A42F6444118
:10150000C4F201011A43A1F14403984202620FD0D0
:1015100040F2FF71C4F20001884213DCB0F1804F49
:101520001CD040F20041C4F20001884216D01CE0F9
:101530000A6842F400420A6040F2FF71C4F20001FE
:101540008842EBDD42F60041C4F20101884205D039
:1015500040F60001C4F20001884206D1816801F022
:101560000701062904BF00207047016841F001010E
:1015700001600020704700007047000070470000C5
:10158000B0B582B001680A68CC684B6902F02F05DB
:10159000202D04F0200505D125B102B0BDE8B040F2
:1015A00001F0C6B85FEA027C1EBF03F0010E04F42E
:1015B000907313EB0E0341D1036BD50618D5012BA5
:1015C00016D114F0100313D0002201920A68019280
:1015D0004A680192019A496949064BD4818DC28DAE
:1015E000C38D002B18BF914240F0F48102B0B0BD12
:1015F00013062DD514F080032AD090F84120212A1B
:10160000F4D18268B2F5805F03D10269002A00F04C
:101610006782026A531C036212784A60C28C013AE4
:101620001304C284E2D1C86820F08000C860C86892
:1016300040F04000C86002B0B0BD00BFD30718BF83
:1016400014F4807340F0D080530700F1D380D8E0C9
:101650005206CBD514F04002C8D0CA6822F040022E
:10166000CA60202180F8411002B0BDE8B04000F00F
:1016700015BC00BFC16B0A68526893B2002BB5D08D
:10168000858DAB42B2D2C2858969202900F0A18044
:10169000016851E8031F026821F4807142E80313D6
:1016A000DBB1016851E8031F026821F4807142E850
:1016B000031393B1016851E8031F026821F480719C
:1016C00042E803134BB1016851E8031F026821F49B
:1016D000807142E80313002BDAD1016851E8051F3D
:1016E000026821F0010142E80513C3B3016851E823
:1016F000051F026821F0010142E805137BB3016870
:1017000051E8051F026821F0010142E8051333B3D7
:10171000016851E8051F026821F0010142E8051344
:10172000002BDAD11BE000BF016851E8051F0268F9
:1017300021F0400142E80513DBB1016851E8051FC3
:10174000026821F0400142E8051393B1016851E8B5
:10175000051F026821F0400142E805134BB1016802
:1017600051E8051F026821F0400142E80513002BF3
:10177000DAD1202180F8421000210163016851E88C
:10178000031F026821F0100142E80313DBB1016876
:1017900051E8031F026821F0100142E8031393B1DE
:1017A000016851E8031F026821F0100142E80313A9
:1017B0004BB1016851E8031F026821F0100142E8B3
:1017C0000313002BDAD1C16B04460846FEF772FD05
:1017D000204602214163818DC28D891A89B202B0EF
:1017E000BDE8B040FFF7C8BE436C43F0010343645B
:1017F000530706D5BEF1000F03D0436C43F002033C
:101800004364930706D5BEF1000F03D0436C43F049
:1018100004034364BCF1000F06D55EEA050303D060
:10182000436C43F008034364436C002B3FF4DEAE8B
:10183000920605D525B1044600F07AFF21682046BE
:101840004969426C01F0400102F00802891800F079
:10185000B98000BF016851E8031F026821F490714C
:1018600042E80313BBB3016851E8031F026821F487
:10187000907142E8031373B3016851E8031F0268D3
:1018800021F4907142E803132BB3016851E8031F60
:10189000026821F4907142E80313002BDAD11AE0B8
:1018A000016851E8051F026821F0010142E80513B3
:1018B000DBB1016851E8051F026821F0010142E82F
:1018C000051393B1016851E8051F026821F0010179
:1018D00042E805134BB1016851E8051F026821F089
:1018E000010142E80513002BDAD1016B012924D153
:1018F000016851E8031F026821F0100142E8031358
:10190000DBB1016851E8031F026821F0100142E8D1
:10191000031393B1016851E8031F026821F010011D
:1019200042E803134BB1016851E8031F026821F03C
:10193000100142E80313002BDAD1202180F8421075
:101940000021016301684969490640F1C3800168CB
:1019500051E8051F026821F0400142E80513DBB1A0
:10196000016851E8051F026821F0400142E80513B3
:1019700093B1016851E8051F026821F0400142E877
:1019800005134BB1016851E8051F026821F04001C1
:1019900042E80513002BDAD1C16B002900F09A80D0
:1019A00042F22572C0F60002044608464A63FEF77A
:1019B000A5FC00283FF41AAEE06B416B02B0BDE815
:1019C000B04008470446FFF7D9FD0020606402B02C
:1019D000B0BD00BF891A00BF026852E8032F036838
:1019E00022F4907243E80325BDB3026852E8032F46
:1019F000036822F4907243E8032575B3026852E845
:101A0000032F036822F4907243E803252DB3026884
:101A100052E8032F036822F4907243E80325002D57
:101A2000DAD11AE0026852E8052F036822F00102B9
:101A300043E80525DDB1026852E8052F036822F06E
:101A4000010243E8052595B1026852E8052F0368B5
:101A500022F0010243E805254DB1026852E8052F46
:101A6000036822F0010243E80525002DDAD1202287
:101A700080F8422000220263026852E8032F0368C4
:101A800022F0100243E80325DDB1026852E8032F7B
:101A9000036822F0100243E8032595B1026852E87A
:101AA000032F036822F0100243E803254DB10268BA
:101AB00052E8032F036822F0100243E80325002DAB
:101AC000DAD1022289B2426302B0BDE8B040FFF72A
:101AD00053BD00BF02B0BDE8B040FFF74FBD00BF2F
:101AE000026A32F8023B6FF35F234B60026295E5B6
:101AF000002804BF0120704710B5044690F841004B
:101B000028B9002084F84000204600F063F8242023
:101B100084F841002068D4E90212C36823F400531A
:101B2000C360036923F440531A430261D4E90423D8
:101B30001143C268194341F20C639A431143C160D7
:101B40004169A26921F44071114343F60002C4F2D5
:101B500001029042416103D0FEF7E8FE02E000BFBF
:101B6000FEF7F8FED4E90023192148439900B0FBA1
:101B7000F1F048F21F5CC5F2EB1CA0FB0C314FF6F4
:101B80009C734909C0F6FF7301FB0300322303EB8A
:101B90000010A0FB0C03F02000EA531000EB011032
:101BA000C3F34311084490601069202120F4904051
:101BB0001061506920F02A005061D06840F4005054
:101BC000D0600020606484F8411084F842106063A3
:101BD00010BD000070B586B040F60004C4F20104E8
:101BE0000068A4F54441002688420596CDE90366C5
:101BF000029601D006B070BD41F21800C4F2020096
:101C0000416802AD41F400314160416801F40031A6
:101C100001910199016841F00401016000682946C1
:101C200000F004000190019804200290022003902B
:101C3000032005902046FEF7D1FB0820CDE90206DF
:101C4000204629460496FEF7C9FB262000210022E3
:101C5000FEF752FD2620FEF73DFD06B070BD0000E8
:101C600090F84230202B07D100294FF0010318BF14
:101C7000002A05D11846704702231846704700BF56
:101C800000230363816222218285C285436480F838
:101C900042100169006819B1C16841F48071C160E6
:101CA000416941F001014161C16841F02001C16019
:101CB00018467047006844F20041C4F200018842AF
:101CC00018BF704740F28800C2F20000C178027865
:101CD0000A2907D1811800220A724FF4807101800D
:101CE0000AE000BF302A05D8531C02440370117269
:101CF00002E000BF00210170C11C40F20C10C2F2D2
:101D000000000122FFF7ACBF2DE9F04381B004468B
:101D100090F84100202809D100294FF0010018BF98
:101D2000002A07D101B0BDE8F08300BF022001B056
:101D3000BDE8F0830020606421201D460E4684F833
:101D400041001746FEF758FCA784E784A168814646
:101D5000B1F5805F02D1206900285DD037460020B0
:101D6000E28C2168002A5DD06A1C24D0002D4AD064
:101D7000804600BF0868000608D4FEF73DFCA0EBD3
:101D80000900A8427AD82168C868F3E717B117F8A4
:101D9000010B04E038F8020B00276FF35F20486066
:101DA000E08C0138E084E08C0028E3D13AE000BF09
:101DB0000A68120609D40A68120606D40A681206CE
:101DC0005CBF0A685FEA0262F2D51FB117F8012B07
:101DD00005E000BF30F8022B00276FF35F224A6056
:101DE000E28C013AE284E28C002AE4D11AE000BFDE
:101DF00030F8022B00276FF35F224A60E28C013A31
:101E0000E284E28C72B10A68120635D5002FEFD059
:101E100017F8012BF1E700BF00273046E28C21685C
:101E2000002AA1D1086840061ED42DB3681C14D125
:101E3000086840062AD40868400627D40868400687
:101E400024D4086840064FF00000F1D50DE000BF33
:101E50002068C1680068400618D4FEF7CDFBA0EBEF
:101E60000900A842F4D909E00020202184F841109B
:101E700001B0BDE8F08300BFFEF7BEFB03202021C8
:101E800084F8411001B0BDE8F08300BF002020219C
:101E900084F8411001B0BDE8F083000070470000F5
:101EA000FEE70000FEE70000B0B540F60040C4F2D7
:101EB00001004FF4807101220125FEF797FB40F2EB
:101EC000C400C2F200000021FFF7E8FA40F28804E3
:101ED000C2F2000440F20C10C2F2000003A10A2278
:101EE0006423A570BDE8B040FFF70EBF4D4F544FBF
:101EF00052204F4E0D0A0000FEE700002DE9F04F82
:101F00008DB0017828294FF00001ADF83010CDE9EF
:101F10000A11ADF82410CDE9071140F06D81427827
:101F20004FF0000C4FF0020122B1242A02D0262AE1
:101F300002D12622002309E08DF82820827801238F
:101F4000002A4FF0030118BF242A25D142F00202D3
:101F50000AAF262A07F803C040F04E81425C002AEF
:101F600000F04A81292A01D10020B8E001448DF80F
:101F70001C204A780120002A00F0D282292A00F091
:101F8000AE808DF81D208A78002A00F0C982292AA7
:101F900062D10220A3E000BF262A01D12622D5E784
:101FA0008DF82920C2780223002A4FF0040118BFBF
:101FB000242ACBD0262AF1D08DF82A2002790323B7
:101FC000002A4FF0050118BF242ABFD0262AE5D0E9
:101FD0008DF82B2042790423002A4FF0060118BF08
:101FE000242AB3D0262AD9D08DF82C208279052333
:101FF000002A4FF0070118BF242AA7D0262ACDD0E7
:102000008DF82D20C2790623002A4FF0080118BF51
:10201000242A9BD0262AC1D08DF82E20027A0723AD
:10202000002A4FF0090118BF242A3FF48FAF262A57
:10203000B4D08DF82F20427A0823002A4FF00A01ED
:1020400018BF242A3FF482AF262AA7D08DF830206B
:10205000827A09230B2179E78DF81E20CA78002A9D
:1020600000F05E82292A01D1032038E08DF81F207C
:102070000A79002A00F05482292A01D104202EE096
:102080008DF820204A79002A00F04A82292A01D1BD
:10209000052024E08DF821208A79002A00F0408272
:1020A000292A01D106201AE08DF82220CA79002AB7
:1020B00000F03682292A01D1072010E08DF8232074
:1020C0000A7A002A00F02C82292A01D1082006E091
:1020D0008DF824204A7A002A00F02282092007A9DC
:1020E0000023292A0B5440F087809DF81C20002AE9
:1020F00000F08680881C0021A2F13A0313F10A0F38
:10210000C0F07E8001EB810110F8013C02EB41013F
:10211000A1F130014BB3A3F13A0212F10A0FC0F062
:102120006F8001EB8101027803EB4101A1F13001E5
:10213000DAB1A2F13A0313F10A0F61D301EB810185
:10214000437802EB4101A1F1300173B1A3F13A02EE
:1021500012F10A0F54D301EB8101827803EB4101A4
:102160003039002A00F10400C6D19DF8282043F23E
:102170005713002AC0F6000346D0A2F16207112FC0
:102180004FF0020000F2CC81DFE817F06B02CA01C9
:102190001200CA015000CA01CA01CA01CA01CA011B
:1021A000CA01CA01CA01CA01CA01CA01CA0178002A
:1021B0009DF82900002800F04B81752840F0A68288
:1021C0009DF82A00002800F04981742840F09E8282
:1021D0009DF82B00002800F0A981792840F0968214
:1021E0009DF82C00002800F0DF81792840F08E82D5
:1021F0009DF82D00053308E001200DB0BDE8F08FFB
:1022000003200DB0BDE8F08F00201B78984240F00D
:102210002582C8B2652859D340F20C1043F22D1123
:10222000C2F20000C0F600010B2275E19DF8290002
:1022300043F24B130028C0F6000300F00781722818
:1022400040F085819DF82A00002800F0058165286E
:1022500040F07D819DF82B00002800F065817128F9
:1022600040F075819DF82C00002800F063817128F2
:1022700040F06D819DF82D0005335CE19DF829004B
:1022800043F245130028C0F6000300F0E3807428F1
:1022900040F09F819DF82A00002800F0E1806F281F
:1022A00040F097819DF82B00002800F041817028B4
:1022B00040F08F819DF82C00002800F07781702875
:1022C00040F087819DF82D00053370E140F2000257
:1022D000C2F20002D0689170C0EB001201920201BC
:1022E000C0EBC00500926A0002920D22424300EB4F
:1022F00040040392A20004920B224AF200234243BC
:1023000000EB8006C0F24A430592720000EBC00E5B
:102310004FEAC0094FEA440A4FEA800B47004FF0EA
:1023200000084FF00F0C069200EB0802B3FBF2F22C
:10233000013AB2F5803FC0F0958007EB0802B3FB8D
:10234000F2F2013AB2F5803FC0F0908004EB08024F
:10235000B3FBF2F2013AB2F5803FC0F08B800BEB99
:102360000802B3FBF2F2013AB2F5803FC0F086807A
:1023700006EB0802B3FBF2F2013AB2F5803FC0F07F
:1023800081800AEB0802B3FBF2F2013AB2F5803F1A
:10239000C0F07C8005EB0802B3FBF2F2013AB2F523
:1023A000803F77D309EB0802B3FBF2F2013AB2F5B2
:1023B000803F73D30EEB0802B3FBF2F2013AB2F5A1
:1023C000803F6FD3069A4244B3FBF2F2013AB2F572
:1023D000803F6BD3059A4244B3FBF2F2013AB2F567
:1023E000803F67D3049A4244B3FBF2F2013AB2F55C
:1023F000803F63D3039A4244B3FBF2F2013AB2F551
:10240000803F5FD3029A4244B3FBF2F2013AB2F545
:10241000803F5BD3019A4244B3FBF2F2013AB2F53A
:10242000803F57D3009A9044B3FBF8F2013AB2F5DB
:10243000803F51D30F220CF1100CC0F201029445E1
:102440007FF472AF4FF0000C002245E0013372E0E0
:102450000133DAE60133AAE002336CE00233D4E65A
:102460000233A4E0ACF10F0C36E000BFACF10E0C6F
:1024700032E000BFACF10D0C2EE000BFACF10C0C53
:102480002AE000BFACF10B0C26E000BFACF10A0C57
:1024900022E000BFACF1090C1EE000BFACF1080C5B
:1024A0001AE000BFACF1070C16E000BFACF1060C5F
:1024B00012E000BFACF1050C0EE000BFACF1040C63
:1024C0000AE000BFACF1030C06E000BFACF1020C67
:1024D00002E000BFACF1010C501C01F07F01484349
:1024E00048F21F51C5F2EB11A0FB010142F6144066
:1024F000C4F201004909C0F814C0826101620021E0
:1025000001610121016040F20C1043F21411C2F28A
:102510000000C0F600010E226423FFF7F5FB002047
:102520000DB0BDE8F08F00BF033304E003336CE669
:1025300003333CE004331B78984207D140F200009B
:10254000C2F20000C0E90411E9E700BF12B39DF830
:10255000290043F23913C0F60003C8B16F2840F0D8
:10256000D5809DF82A00D8B1722840F0CF809DF820
:102570002B00B8B1772840F0C9809DF82C000028C6
:102580005ED0642840F0C2809DF82D00053358E0ED
:10259000013356E043F257130020C0F6000334E63F
:1025A00002334EE003334CE004332EE604331B7851
:1025B00098420BD100294FF00000B1D040F2000149
:1025C000C2F2000108610DB0BDE8F08F002A00F0F2
:1025D00084809DF8290043F25112C0F60002E8B150
:1025E000742840F093809DF82A00E8B1612840F0FB
:1025F0008D809DF82B00E8B1722840F087809DF80F
:102600002C00002800F07E80742840F07F809DF828
:102610002D0005321278904267D077E001321278AF
:10262000904262D072E000BF0232127890425CD0D9
:102630006CE000BF03321278904256D066E000BFD3
:1026400004331B78984209D100293FF468AF40F267
:102650000000C2F200000121417060E7F2B1622A7D
:1026600054D19DF8290043F23F13C0F60003D8B1BE
:1026700061284BD19DF82A00C0B1632846D19DF84E
:102680002B00A8B16B2841D19DF82C0090B16B288C
:102690003CD19DF82D0005330DE000BF43F23F1300
:1026A0000020C0F6000306E0013304E0023302E03C
:1026B000033300E004331B7898420DD100294FF01A
:1026C00000003FF42DAF40F20001C2F2000148705B
:1026D0000DB0BDE8F08F00BFC2B943F25112002027
:1026E000C0F600021278904210D100293FF417AFD3
:1026F00040F20000C2F2000041690161FFF7D4FB23
:102700000DE700BF043212789042EED002200DB0E7
:10271000BDE8F08F7047000070470000FDF772BF02
:1027200070470000406A0021C185C184FEF726BFC2
:1027300081B090F84210222921D183680246B3F576
:10274000805F09D152F8281F52F8183C002B63D043
:1027500003685B680AE000BF52F8281F13B90369D9
:10276000002BF5D003685B6803F07F030B701168E2
:1027700001311160C18D01390A04C18502D001B057
:10278000704700BF0168CA6822F02002CA60CA68A8
:1027900022F48072CA604A6922F001024A61202153
:1027A00080F8421000214163026B012A3CD1016391
:1027B000016851E8031F026821F0100142E8031389
:1027C000DBB1016851E8031F026821F0100142E803
:1027D000031393B1016851E8031F026821F010014F
:1027E00042E803134BB1016851E8031F026821F06E
:1027F000100142E80313002BDAD101680A68D206FF
:1028000006D5002200920A6800924968009100995A
:10281000818D01B0FEF7B0BE026852686FF35F228F
:1028200021F8022B8162A5E701B0FFF743BA00004F
:1028300040F20C10C2F20000FEF7A2BEFEE700005C
:10284000A4B0FDF7EDFE00240120CDE91244CDE94E
:1028500010440D9011904FF4E0104FF48031022598
:1028600016900DA8CDE90E14CDE91451FEF786F8A7
:1028700020B1EFF3108072B6FEE700BF0F20CDE964
:1028800017054FF48060CDE91A0417A802211994A6
:10289000FDF76EFF20B1EFF3108072B6FEE700BFC8
:1028A000002541F21800CDE90F55CDE90D55C4F2D0
:1028B0000200016840F6004441F020010160016817
:1028C000C4F2010401F02001179117990168002258
:1028D00041F00401016001684FF4407601F0040109
:1028E00017911799016841F00801016000684FF4E1
:1028F000407100F00800179017982046FDF776FE0B
:102900000120CDE90E05022010900DA920460D965C
:10291000FDF764FD40F20C10A4F54841C2F200003E
:102920000C234FF4E13280E82600C0E90355C0E9EA
:102930000535C561FFF7DCF820B1EFF3108072B602
:10294000FEE700BF40F2000BC2F2000B40F2C400F1
:10295000BBF8063004F50051C2F200002395CDE922
:102960002155CDE91E551395BBF8042080E82600BB
:10297000C0E90335C0E90555FEF77CFA20B1EFF355
:10298000108072B6FEE700BF4FF48050209040F2F6
:10299000C400C2F2000020A9FEF702FB20B1EFF351
:1029A000108072B6FEE700BF40F2C400C2F2000021
:1029B000FEF7F4FC20B1EFF3108072B6FEE700BF23
:1029C00040F2C400C2F200001EA9FEF713FA28B1BB
:1029D000EFF3108072B600BFFEE700BFBBF808102F
:1029E0006020CDE9170140F2C4000025C2F20000CA
:1029F00017A90022CDE91955CDE91B551D95FEF704
:102A0000CBFB28B1EFF3108072B600BFFEE700BF2A
:102A10004FF40050129040F2C400C2F200000DA921
:102A20001195CDE90F55CDE90D551495FEF7BCF97B
:102A300020B1EFF3108072B6FEE700BF40F2C40091
:102A40004AF20028C2F20000C0F24A48FEF778FBC2
:102A50004FF4FA70FDF7AEFC40F20C15C2F200051F
:102A60000FF23861284609226423FFF74DF940F23E
:102A70008806C2F20006F11C28460122FFF7F0F892
:102A800020464FF400710022FDF7B0FD20464FF4C0
:102A900080710122FDF7AAFD4FF4FA70FDF78AFC60
:102AA00006F108000C9003E00B226423FFF72CF9D9
:102AB0009BF800009BF80120904228D0DBF80C0026
:102AC00000284FF00000CBF8100020D143F2231A69
:102AD00043F20A10C0F6000AC0F600008BF800208E
:102AE000002A18BF012218BF824620464FF4007109
:102AF000FDF77CFD40F20C10C2F2000051460922A5
:102B00006423FFF701F9DBF81400CBF81000FDF7A0
:102B100073FD40F28801C2F200014968401A0A2898
:102B2000C0F07182FDF768FDDBE9032340F2880104
:102B30009A42C2F20001486080F0C8806432981A5C
:102B4000642838BF1A46002A00F0E481C2EB021064
:102B500005901001C2EBC2060490700006900D2093
:102B6000504302EB42030790980008900B2050431B
:102B700002EB820C09904FEA4C000A9002EBC20073
:102B80000B90D5005F004FEA82094FEA420E4FF0EA
:102B9000000A0F20CBF80C2002EB0A01B8FBF1F180
:102BA0000139B1F5803FC0F0BF810EEB0A01B8FBDF
:102BB000F1F10139B1F5803FC0F0B88103EB0A01B2
:102BC000B8FBF1F10139B1F5803FC0F0B18109EBFB
:102BD0000A01B8FBF1F10139B1F5803FC0F0AA81DB
:102BE0000CEB0A01B8FBF1F10139B1F5803FC0F0FF
:102BF000A38107EB0A01B8FBF1F10139B1F5803F80
:102C0000C0F09C8106EB0A01B8FBF1F10139B1F586
:102C1000803FC0F0958105EB0A01B8FBF1F1013965
:102C2000B1F5803FC0F08E810B995144B8FBF1F1B2
:102C30000139B1F5803FC0F087810A995144B8FB52
:102C4000F1F10139B1F5803FC0F08081099951441B
:102C5000B8FBF1F10139B1F5803FC0F079810899F5
:102C60005144B8FBF1F10139B1F5803FC0F07281F8
:102C700007995144B8FBF1F10139B1F5803FC0F03B
:102C80006B8106995144B8FBF1F10139B1F5803FF0
:102C9000C0F0648105995144B8FBF1F10139B1F5F7
:102CA000803FC0F05D8104998A44B8FBFAF1013994
:102CB000B1F5803FC0F055810F211030C0F2010105
:102CC00088427FF469AF002000214AE140F29B81F5
:102CD000D01A6428194688BFA2F1640100290B911B
:102CE00000F01881C3EB031264284FF0640198BF11
:102CF0000846C0EB0017D119C3EBC30A0A914FEA8B
:102D00004A07C0EBC00107EB41070D26099700FBFE
:102D100006F703FB067703EB43060897B70000EBC3
:102D2000400507EB85074FF00B0C079700FB0CF7EE
:102D300003FB0C7700EBC009029703EBC30703EB1F
:102D4000830C4F444FEA4C0E019700EB80070EEBCB
:102D5000470200920AEB0109DA00710002EBC00E93
:102D600001EB45012E449D005A001B0105EB800537
:102D700002EB400203EB00100A9BBC44A3F2DC53BD
:102D80000393099B0B9FA3F5AF630493089BA0F5E6
:102D9000C86AA3F214530593079B3801A3F5966301
:102DA0000693029BA1F51671A3F24C430793009B77
:102DB000A5F5C875A3F57A730893019B0290A3F556
:102DC00061730993AEF548730A93A9F52F7EACF5AC
:102DD000FA73A6F59679A2F1C80C00260F20CBF85D
:102DE0000C700B9A3244B8FBF2F2013AB2F5803F14
:102DF000C0F0D2800CEB0602B8FBF2F2013AB2F559
:102E0000803FC0F0CB8009EB0602B8FBF2F2013A3A
:102E1000B2F5803FC0F0C480AA19B8FBF2F2013AC3
:102E2000B2F5803FC0F0BE809A19B8FBF2F2013AC9
:102E3000B2F5803FC0F0B8808A19B8FBF2F2013ACF
:102E4000B2F5803FC0F0B2800EEB0602B8FBF2F2A2
:102E5000013AB2F5803FC0F0AB800A9A3244B8FB29
:102E6000F2F2013AB2F5803FC0F0A480099A3244F0
:102E7000B8FBF2F2013AB2F5803FC0F09D80089AAB
:102E80003244B8FBF2F2013AB2F5803FC0F09680CE
:102E9000079A3244B8FBF2F2013AB2F5803FC0F033
:102EA0008F80069A3244B8FBF2F2013AB2F5803FC5
:102EB000C0F08880059A3244B8FBF2F2013AB2F5CC
:102EC000803FC0F08180049A3244B8FBF2F2013AAC
:102ED000B2F5803FC0F07A80039A3244B8FBF2F238
:102EE000013AB2F5803FC0F073800AEB0602B8FBEE
:102EF000F2F2013AB2F5803FC0F06B800F22103041
:102F0000C0F201029042029A16447FF46AAF002098
:102F100000225EE042F63440C4F20100002101606C
:102F2000CBF80C106FE000BF0F381AE00E3818E035
:102F30000D3816E00C3814E00B3812E00A3810E0B7
:102F400009380EE008380CE007380AE0063808E0D7
:102F5000053806E0043804E0033802E0023800E0F7
:102F6000013842F63442C4F2010242F80C0C42F835
:102F7000081C9BF802000131484348F21F51C5F27A
:102F8000EB11A0FB010148091060002042F8100C71
:102F9000012042F8200C36E00F381AE00E3818E015
:102FA0000D3816E00C3814E00B3812E00A3810E047
:102FB00009380EE008380CE007380AE0063808E067
:102FC000053806E0043804E0033802E0023800E087
:102FD000013842F63443C4F2010343F80C0C43F8C1
:102FE000082C9BF80200511C484348F21F51C5F2BF
:102FF000EB11A0FB010148091860002043F8100CF8
:10300000012043F8200C40F28800C2F20000407812
:1030100000283FF44DAD40F2880040F20C15C2F29A
:1030200000000021C2F20005417028461EA10422C2
:103030006423FEF769FE0C9E3046FDF7DBF882B292
:10304000284631466423FEF75FFE284618A1022277
:103050006423FEF759FE3046FEF750FFDFE800F02C
:103060000802101840F20C10C2F2000017A11BE574
:1030700040F20C10C2F2000017A1042215E500BFB7
:1030800040F20C10C2F200000AA109220DE500BFB7
:1030900040F20C10C2F2000009A105E5554152545E
:1030A000204F4B0D0A00000052583A20000000004B
:1030B0000D0A000045525220434D440D0A00000005
:1030C0004552522056414C55450D0A00455252205A
:1030D0004652414D450D0A004F4B0D0A00000000BD
:1030E00000000000000000000102030406070809B8
:1030F00000000000010203040102020304050607A8
:1031000008090A0B0C0D0E0F1010444952204657A7
:10311000440D0A004F4B3A2044555459205345540E
:103120000D0A00444952205245560D0A004552529C
:103130003A20445554590D0A00666F727764006254
:1031400061636B6B0073746F707000667265717190
:103150000073746172740064757479790000000002
:103160008031000800000020280000005001000805
:10317000A831000828000020300700007001000876
:10318000010132004700630032000000E803000044
:10319000E8030000E8030000010000001000000048
:0831A00000127A00000000009B
:04000005080000ED02
:00000001FF
