:020000040800F2
:10000000A0070020B50100084D290008DD1F0008E9
:10001000E11F0008710200085D30000800000000C8
:10002000000000000000000000000000392F000860
:100030006503000800000000352F00083D2F000870
:10004000CF010008CF010008CF010008CF01000850
:10005000CF010008CF010008CF010008CF01000840
:10006000CF010008CF010008CF010008CF01000830
:10007000CF010008CF010008CF010008CF01000820
:10008000CF010008CF010008CF010008CF01000810
:10009000CF010008CF010008CF010008CF01000800
:1000A000CF010008CF010008CF010008CF010008F0
:1000B000CF010008CF010008CF010008CF010008E0
:1000C000CF010008CF010008CF010008CF010008D0
:1000D000CF010008CF01000851300008CF0100080F
:1000E000CF010008CF010008CF01000800F002F89E
:1000F00000F050F814A696E8000CB244B344DA4578
:1001000001D100F047F8BAE80F000FA696E83000DA
:10011000A5EB040504EB0607AAEB0704A7F101070A
:100120004FEA15154FEA3414A4F10104AC4201D38F
:1001300000F030F813F0010F18BFFB1A43F0010371
:1001400000F001F8DBE7184770330000903300003F
:10015000103A24BF78C878C1FAD8520724BF30C8F3
:1001600030C144BF04680C60704700007047000055
:100170000023002400250026103A28BF78C1FBD8B0
:10018000520728BF30C148BF0B6070471FB51FBD65
:1001900010B510BD00F031F81146FFF7F7FF02F07F
:1001A0005FFF00F04FF803B4FFF7F2FF03BC00F06D
:1001B00057F800000948804709480047FEE7FEE776
:1001C000FEE7FEE7FEE7FEE7FEE7FEE7FEE7FEE707
:1001D00004480549054A064B70470000412F0008B6
:1001E000ED000008A0010020A0070020A0030020CF
:1001F000A0030020704770477047754600F02CF848
:10020000AE4605006946534620F00700854618B003
:1002100020B5FFF7DDFFBDE820404FF000064FF0AE
:1002200000074FF000084FF0000BAC46ACE8C009E7
:10023000ACE8C009ACE8C009ACE8C00921F007018E
:100240008D46704710B50446AFF300802046BDE8E8
:100250001040FFF7A8BF00000048704730000020A2
:1002600001491820ABBEFEE72600020070470000DF
:10027000FEE70000002818BF704740F29000C2F26D
:1002800000000121817040F20000C2F2000007214D
:10029000C176704740F20001C2F200010622CA7620
:1002A000C8617047002818BF704740F20000C2F2D2
:1002B00000000321C176704740F20001C2F2000144
:1002C0000522CA76C8617047002818BF704740F2FF
:1002D0000010C2F200000121017040F20000C2F2E1
:1002E00000000921C1767047002818BF704740F20E
:1002F0000000C2F200000421C1767047002818BF38
:10030000704740F20000C2F200000121C176704740
:10031000002818BF704740F20000C2F2000002211E
:10032000C1767047002818BF704740F29000C2F2B3
:1003300000000021817040F20000C2F2000008219C
:10034000C1767047002818BF704740F20010C2F213
:1003500000000021017040F20000C2F200000821FC
:10036000C176704770470000014690F821000228CE
:1003700016D10868D1E90FC3026822F00E020260AC
:10038000026822F001020260012000FA03F2CCF8B8
:10039000042081F821000020002281F820207047ED
:1003A000042088630120002281F82020704700008B
:1003B00090F82110022923D1026840F2040C116840
:1003C000C4F2020C21F00E01116013682F21C4F257
:1003D00002018A4223F00103136015DD3023C4F2C9
:1003E00002039A421CD04423C4F202039A421BD057
:1003F0005823C4F202039A421CD14FF4803321E007
:1004000004218163012070470823C4F202039A4249
:100410000ED01C23C4F202039A420BD1102311E028
:100420004FF480730EE000BF4FF480530AE000BF2A
:10043000012307E00CF168014FF080738A4208BF86
:100440004FF480130121CCF8003080F82110416B6B
:100450000022002980F8202004BF0020704780B5CA
:100460008847002080BD00002DE9F04F82B00E6863
:10047000002E00F0FD8041F20042C4F2010204238C
:1004800040F2004E904208BF03234FF6FF7CC4F2B7
:10049000010E009300240123C1F2100C4FF0000A5A
:1004A0004FF000094BE000BF41F20002C4F201022C
:1004B000009F904208BF022704F00C030F229A40CD
:1004C0002BEA020207FA03F34FEA9A051A4346F8A9
:1004D00025204E6840F20C45F202DEF8082054BF99
:1004E00022EA080242EA0802C4F20105CEF8082016
:1004F0002A68B30254BF22EA080242EA08022A60CC
:10050000B303DEF8042054BF22EA080242EA0802DC
:10051000F303CEF80420DEF800204FF0010354BFAF
:1005200022EA080242EA0802CEF800200E680AF128
:10053000010A36FA0AF204F1040400F0998003FA81
:100540000AFB16EA0B08F1D04E68664512DC122E43
:1005500056D8DFE806F0350B4D49555555555555DC
:100560005555555555555545510000BFD1F80C907E
:1005700046E000BF4FF6FF72C1F2210296420FDC47
:100580000022C1F2110296421AD00022C1F21202D8
:10059000964215D00022C1F22102964210D02FE0DF
:1005A0000022C1F2220296420AD00022C1F2310298
:1005B000964205D00022C1F23202964220D100BFFD
:1005C0008A684AB1012A14BFC0F814B0C0F810B04C
:1005D0004FF0080914E000BF4FF0040910E000BF1D
:1005E000CA6802F104090BE04FF0000908E000BFFF
:1005F000CA6802F1080903E0CA6802F10C0900BFE9
:1006000002462646B8F5807F24BF0432203E176894
:100610000F25B54027EA050509FA06F635431560AA
:10062000CA79D2067FF582AF41F21803C4F2020301
:100630001A68AEF57E7642F001021A601A6802F07E
:1006400001020192019A2AF0030256F802B040F624
:100650000002C4F20102904208D040F60042C4F207
:10066000010290427FF420AF012725E7002723E70E
:1006700002B0BDE8F08F0000002A08BF0904016144
:100680007047000040F29810C2F200000068704706
:1006900040F2200040F29811C2F20000C2F20001C4
:1006A00000780A68104408607047000080B542F284
:1006B0000000C4F20200016841F010010160032053
:1006C00000F08CF80F2000F005F800F027F800206B
:1006D00080BD000070B540F22006C2F2000640F274
:1006E00028013278C2F200014FF47A730968B3FB33
:1006F000F2F20446B1FBF2F1084600F085FB0F2C44
:100700004FF0010508D838B94FF0FF3021460022DC
:10071000002500F037F87460284670BD82B041F2C1
:100720001800C4F202000168022241F001010160D8
:10073000016801F0010101910199416841F0805186
:100740004160406800F08050009000980420C4F29E
:100750000100016862F31A61016002B07047000095
:10076000002848BF704700F01F01012202FA01F182
:100770001C2202EAD0004EF20012CEF2000281509A
:100780007047000010B54EF60C5CCEF2000CDCF8A1
:100790000030C3F3022E8EF00704042C28BF04247B
:1007A000BEF103034FF0FF3E0EFA04F438BF0023FE
:1007B000A14399400EFA03F39A43114300F00F024C
:1007C00000F160430901043A03F5644362440028E0
:1007D00048BF02F10C03197010BD00004EF60C5119
:1007E000CEF200010A684FF6FF031A4060F30A22B6
:1007F00042F0806040F0FD7008607047002804BF40
:10080000012070472DE9F04381B042F20008C4F2A4
:1008100002080446D8F800000D4600F007008142A7
:100820000CD9D8F8000020F007002843C8F80000D1
:10083000D8F8000000F00700A8426CD1206841F20F
:1008400004098107C4F2020917D5410705D5D9F873
:10085000001041F4E061C9F80010010705D5D9F88E
:10086000001041F46051C9F80010D9F80010A268D6
:1008700021F0F0011143C9F80010C00742D1D8F8A7
:10088000000000F0070085420CD2D8F8000020F0EC
:1008900007002843C8F80000D8F8000000F007005F
:1008A000A84238D12068410707D5D9F80010E2687E
:1008B00021F4E0611143C9F80010000708D5D9F808
:1008C0000000216920F4605040EAC100C9F800002E
:1008D000D9F8002002F00C00082841F20020C0F2F4
:1008E0007A004DD143F22643C2F38341C0F60003A0
:1008F000595CD20338D440F60010C0F23D004843A2
:100900003EE000BF606859F8041C022808D00128A6
:1009100026D1890306D4012001B0BDE8F08300BFD1
:100920008901F8D5D9F8001021F003010843C9F86E
:100930000000FFF7A7FE064641F28837D9F800000D
:10094000616800F00C00B0EB810F98D0FFF79AFEC1
:10095000801BB842F2D9032001B0BDE8F08300BF8C
:100960008907D8D5DEE700BFD9F8002043F2244339
:10097000C2F34042C0F600039A5C4843B0FBF2F079
:10098000D9F8001043F2BC32C1F30311C0F60002E3
:10099000515C40F2280220FA01F140F22400C2F238
:1009A00000000068C2F200021160FFF793FE002011
:1009B00001B0BDE8F083000040F2280041F20401DC
:1009C000C2F20000C4F202010068096843F2CC32AE
:1009D000C1F30221C0F60002515CC840704700001C
:1009E00040F2280041F20401C2F20000C4F2020108
:1009F0000068096843F2CC32C1F3C221C0F600029C
:100A0000515CC84070470000002804BF01207047B7
:100A10002DE9F04182B00446007841F20006C0079B
:100A2000C4F202060CD0706800F00C00042840F0FC
:100A300081803068800303D56068002800F046811B
:100A4000207880071BD5706810F00C0F09D07068F3
:100A500000F00C00082840F087807068C00300F1A7
:100A600083803068800703D52069012840F02E81FB
:100A70003068616920F0F80040EAC10030602078F9
:100A8000000713D4207840072CD4E569002D00F02E
:100A90001881706800F00C00082840F0A780012D34
:100AA00040F00481012002B0BDE8F081A069002877
:100AB00000F084800020C4F242200121C0F880149C
:100AC000FFF7E0FD054600BF706A800700F1B280C5
:100AD000FFF7D8FD401B0228F6D9032002B0BDE87D
:100AE000F08100BFF0695FEAC00808D4F06940F007
:100AF0008050F061F06900F080500090009847F25B
:100B00000007C4F200073868C00549D4386840F4CB
:100B100080703860FFF7B6FD054600BF3868C00535
:100B20003ED4FFF7AFFD401B6428F7D9032002B085
:100B3000BDE8F081706800F00C00082803D17068EF
:100B4000C0033FF576AF61683068002900F00C8182
:100B5000B1F5A02F00F00081B1F5803F40F01A817F
:100B600040F480301CE100BF2069002840F2000002
:100B7000C4F2422000F0888001210160FFF782FD6D
:100B8000054600BF306880073FF572AFFFF77AFD7A
:100B9000401B0228F6D9032002B0BDE8F08100BF57
:100BA000E168306A002900F09D80052900F09280FC
:100BB000012940F0AF8040F00100B1E00020C4F214
:100BC00042200021C0F88014FFF75CFD054600BFFD
:100BD000706A80077FF556AFFFF754FD401B02286F
:100BE000F6D9032002B0BDE8F08100BF0027C4F2AF
:100BF000422700203866FFF745FD022D05460DD13E
:100C00003068800140F1DE80FFF73CFD401B022888
:100C10004FF00300F4D902B0BDE8F08130688001E4
:100C20004FD5FFF72FFD401B02284FF00300F5D9E9
:100C3000F1E700BF40F22800C2F20000006844F66D
:100C4000D351C1F26201A0FB0101480A019000BF2B
:100C500000BF0198411E002801913FF413AF00BF6F
:100C60000198411E002801913FF40CAF00BF01988C
:100C7000411E002801913FF405AF00BF0198411EBD
:100C800000280191E4D1FDE600210160FFF7FAFCA4
:100C9000054600BF306880077FF5F1AEFFF7F2FC34
:100CA000401B02284FF00300F4D9B4E77068216AB2
:100CB00000F480328A4209D1616A00F470108842DF
:100CC00004D1002002B0BDE8F08100BF012002B0D5
:100CD000BDE8F08140F004003062306A40F001006D
:100CE0001EE000BF20F001003062306A20F00400F6
:100CF0003062FFF7C7FC054641F28837306A80074B
:100D000020D5FFF7BFFC401BB8424FF00300F5D9D8
:100D100081E700BF20F001003062306A20F004005B
:100D20003062FFF7AFFC054641F28837306A800732
:100D300008D4FFF7A7FC401BB842F7D9032002B044
:100D4000BDE8F081B8F1000F3FF59FAEF06920F0EB
:100D50008050F06199E600BF40F480203060306838
:100D600040F480301CE000BF20F4803030603068F8
:100D700020F480203060FFF785FC05463068800352
:100D80007FF55EAEFFF77EFC401B64284FF003004A
:100D9000F4D940E720F480303060306820F48020BF
:100DA0003060FFF76FFC0546306880033FF548AEC2
:100DB000FFF768FC401B6428F6D9032002B0BDE8A9
:100DC000F08100BF206AB0F5803F05D17168A2684C
:100DD00021F40031114371607168626A21F4741169
:100DE00011430843706001203866FFF74BFC04464E
:100DF000306880013FF565AFFFF744FC001B022817
:100E00004FF00300F4D906E7411E0020B0EB116F4C
:100E10001CBF012070474EF21002CEF2000251605A
:100E20004EF62351CEF20001F0230B7007219060A3
:100E30001160704790F83C20012A04BF02207047DF
:100E4000B0B501F108053CCDD1E900CE23F47C53C7
:100E500022F470521A432EF4F0431A432CF4E04368
:100E60001A4324F4C0431A432A43C96922F4804236
:100E7000036811435964002180F83C100020B0BD84
:100E800090F83C20012A4FF0020236D010B580F8CD
:100E90003D200268D2F804E0D2F808C00C682EF0B9
:100EA0007003234340F2FF74C4F20004A242536073
:100EB0000ADCB2F1804F13D040F20043C4F20003C9
:100EC0009A420DD011E000BF42F60043C4F2010384
:100ED0009A4205D040F60003C4F200039A4204D1BE
:100EE00049682CF08003194391600121002280F8A9
:100EF0003D1080F83C20BDE81040104670470000CF
:100F0000002804BF0120704710B590F83D1031B99A
:100F1000002180F83C10044600F070F820460221C1
:100F200080F83D10016840F2FF740B68C4F20004C1
:100F300042F6004CA142C4F2010C15DCB1F1804F25
:100F40001AD040F20042C4F20002914214D0A142F1
:100F500018DCB1F1804F1DD040F20042C4F2000213
:100F6000914217D01AE000BF614505D040F600025B
:100F7000C4F200029142EAD1826823F07003134365
:100F8000A142E6DD614505D040F60002C4F2000250
:100F9000914203D1026923F440731343846923F01F
:100FA0008002D0F804E0C368224361450A60CB6246
:100FB000C1F828E002D14269CCF8302001224A6110
:100FC0000B69DB0703D00B6923F001030B6180F889
:100FD000462080F83E2080F83F2080F8402080F8AE
:100FE000412080F8422080F8432080F8442080F897
:100FF000452080F83D20002010BD0000006842F62A
:101000000041C4F20101884218BF704781B041F22B
:101010001800C4F20200016841F400610160006838
:1010200000F400600090009801B0704790F83C20F8
:10103000012A4FF002026CD080B580F83D20D0F834
:1010400000C04FF67772DCF8083023EA0202CCF8D1
:1010500008200B684F2B29DC1F2B45DD202B46D0A9
:10106000302B44D0402B40F0AF80D1F804E0C96869
:10107000DCF82030DCF8202022F00102CCF820201F
:10108000DCF8182022F0F00242EA011123F00A02F3
:1010900042EA0E02CCF81810CCF82020DCF8081038
:1010A00041F0470121F0300128E000BF6F2B33DD14
:1010B000B3F5005F74D0B3F5805F21D0702B40F0A2
:1010C0008380D1E901E3C968DCF8082043EA0E0314
:1010D00022F47F4243EA01211143CCF80810DCF8E6
:1010E000081041F0770109E00BB1102B6CD1DCF84E
:1010F000081021F07001194341F00701CCF80810E5
:101100000022012180F83D10002180F83C10BDE84C
:1011100080401046704700BF502B21D0602B53D128
:10112000D1F804E0C968DCF82030DCF8202022F097
:101130001002CCF82020DCF8182022F4704242EA99
:10114000013123F0A00242EA0E12CCF81810CCF8BC
:101150002020DCF8081041F0670121F01001CDE7F4
:10116000D1F804E0C968DCF82030DCF8202022F057
:101170000102CCF82020DCF8182022F0F00242EA2C
:10118000011123F00A0242EA0E02CCF81810CCF842
:101190002020DCF8081041F0570121F02001ADE7D4
:1011A000D1E901E3C968DCF8082043EA0E0322F420
:1011B0007F4243EA01211143CCF80810DCF8081003
:1011C00041F480419AE700BF01229AE780B586B0DA
:1011D000014640F60000C4F20100096800F5105213
:1011E00091424FF00001CDE90411CDE9021101D087
:1011F00006B080BD41F21801C4F202010A6842F053
:1012000004020A60096801F00401019101994FF498
:101210008071029102210391059102A9FFF724F93F
:1012200006B080BD90F83C30012B04BF022070470F
:101230004FEAB202032A00F2F1802DE9F043DFE821
:1012400002F003A53B7500BF036842F600461D6A25
:101250001A6AC4F2010622F001021A621A465C6898
:1012600052F818CFB3428E68D1F800E025F002059D
:1012700045EA06050CD1CE68D1E9057824F440741E
:1012800025F00C0526F004063C43354344EA0804E7
:101290002CF0730747EA0E075C609F614F6809698D
:1012A0005F631D629F6947F008079F619F6927F090
:1012B00004079F61A6E000BF036842F600461D6A6E
:1012C0001A6AC4F2010622F480721A621A46D3F82E
:1012D00004C052F81CEFB3428E680C6825F4007508
:1012E00045EA06250FD1CE68D1E90598360240F2CD
:1012F000FF4725F44065BE4335432CF4405748EA88
:10130000090647EA061C2EF073072743C3F804C0FA
:10131000DF614F680969DF631D62DF6947F0080715
:10132000DF61DF6927F00407DF616BE0036842F6E5
:101330000047D3F820C01A6AC4F2010722F4805291
:101340001A621A465C6852F81C5FD1F800E08E6899
:10135000BB4204D14F6924F4804444EA87142CF43E
:10136000005747EA063725F4E64646EA0E265C6053
:10137000DE614E6809691E641F62DF6947F4006719
:10138000DF61DF6927F48067DF613AE0036842F6D6
:1013900000461D6A1A6AC4F2010622F010021A629F
:1013A0001A46D3F804C052F8184FB3428E68D1F8E9
:1013B00000E025F0200545EA06150FD1CE68D1E9F9
:1013C00005986FF0400725F0C00507EA061635437B
:1013D0002CF4406748EA090647EA860C24F4E64400
:1013E00044EA0E27C3F804C09F614F6809699F63F0
:1013F0001D629F6947F400679F619F6927F48067BA
:101400009F6109021368194311600021BDE8F04390
:10141000002280F83C200846704700BF01210022CE
:1014200080F83C2008467047002804BF0120704720
:1014300010B590F83D1031B9002180F83C100446F9
:1014400000F070F82046022180F83D10016840F25B
:10145000FF740B68C4F2000442F6004CA142C4F2CF
:10146000010C15DCB1F1804F1AD040F20042C4F2F9
:101470000002914214D0A14218DCB1F1804F1DD07E
:1014800040F20042C4F20002914217D01AE000BFBD
:10149000614505D040F60002C4F200029142EAD153
:1014A000826823F070031343A142E6DD614505D055
:1014B00040F60002C4F20002914203D1026923F413
:1014C00040731343846923F08002D0F804E0C368BA
:1014D000224361450A60CB62C1F828E002D142692B
:1014E000CCF8302001224A610B69DB0703D00B697D
:1014F00023F001030B6180F8462080F83E2080F83D
:101500003F2080F8402080F8412080F8422080F879
:10151000432080F8442080F8452080F83D200020BA
:1015200010BD000070470000C1B1042908D008298F
:1015300014BF41224022825C012A05D016E000BF80
:101540003F22825C012A11D10222082910D00429ED
:1015500014BF80F8412080F83F200BE090F83E2037
:10156000012A03D1022280F83E2003E001207047C7
:1015700080F84020006801F01F010122036A8A40C0
:1015800023EA02010162036A42F64441C4F2010106
:101590001A43A1F14403984202620FD040F2FF7156
:1015A000C4F20001884213DCB0F1804F1CD040F23D
:1015B0000041C4F20001884216D01CE00A6842F4DF
:1015C00000420A6040F2FF71C4F200018842EBDD84
:1015D00042F60041C4F20101884205D040F6000104
:1015E000C4F20001884206D1816801F00701062992
:1015F00004BF00207047016841F001010160002034
:101600007047000080B5026801F01F0C012303FA47
:101610000CFE136A42F6004C23EA0E031362C4F276
:10162000010C136A6245136211D1DCF820C041F24B
:1016300011131CEA030F0AD1D2F820C040F2444330
:101640001CEA030F03D1536C23F400435364D2F814
:1016500020C041F211131CEA030F06D1D2F820C0BA
:1016600040F244431CEA030F14D0082918D004297F
:101670000AD000294FF0010114BF80F8411080F812
:101680003E10002080BD00BF012180F83F100020E7
:1016900080BD00BF136823F0010313600829E6D161
:1016A000012180F84010002080BD0000704700003C
:1016B00070470000B0B582B001680A68CC684B6919
:1016C00002F02F05202D04F0200505D125B102B030
:1016D000BDE8B04001F03CBC5FEA027C1EBF03F0F5
:1016E000010E04F4907313EB0E0341D1036BD50686
:1016F00018D5012B16D114F0100313D0002201923B
:101700000A6801924A680192019A496949064BD4D4
:10171000818DC28DC38D002B18BF914240F0F481A2
:1017200002B0B0BD13062DD514F080032AD090F876
:101730004120212AF4D18268B2F5805F03D1026989
:10174000002A00F06782026A531C036212784A6022
:10175000C28C013A1304C284E2D1C86820F0800030
:10176000C860C86840F04000C86002B0B0BD00BFAB
:10177000D30718BF14F4807340F0D080530700F1F2
:10178000D380D8E05206CBD514F04002C8D0CA6846
:1017900022F04002CA60202180F8411002B0BDE86A
:1017A000B04000F019BC00BFC16B0A68526893B228
:1017B000002BB5D0858DAB42B2D2C2858969202974
:1017C00000F0A180016851E8031F026821F48071D4
:1017D00042E80313DBB1016851E8031F026821F4FA
:1017E000807142E8031393B1016851E8031F026856
:1017F00021F4807142E803134BB1016851E8031FE3
:10180000026821F4807142E80313002BDAD10168E9
:1018100051E8051F026821F0010142E80513C3B336
:10182000016851E8051F026821F0010142E8051333
:101830007BB3016851E8051F026821F0010142E80D
:10184000051333B3016851E8051F026821F0010157
:1018500042E80513002BDAD11BE000BF016851E814
:10186000051F026821F0400142E80513DBB1016861
:1018700051E8051F026821F0400142E8051393B1C9
:10188000016851E8051F026821F0400142E8051394
:101890004BB1016851E8051F026821F0400142E8A0
:1018A0000513002BDAD1202180F8421000210163BA
:1018B000016851E8031F026821F0100142E8031398
:1018C000DBB1016851E8031F026821F0100142E812
:1018D000031393B1016851E8031F026821F010015E
:1018E00042E803134BB1016851E8031F026821F07D
:1018F000100142E80313002BDAD1C16B04460846FD
:10190000FEF732FD204602214163818DC28D891A86
:1019100089B202B0BDE8B040FFF7C8BE436C43F0E7
:1019200001034364530706D5BEF1000F03D0436C97
:1019300043F002034364930706D5BEF1000F03D0C2
:10194000436C43F004034364BCF1000F06D55EEA28
:10195000050303D0436C43F008034364436C002B3E
:101960003FF4DEAE920605D525B1044601F0F0FA4B
:10197000216820464969426C01F0400102F00802EA
:10198000891800F0B98000BF016851E8031F0268A0
:1019900021F4907142E80313BBB3016851E8031FBF
:1019A000026821F4907142E8031373B3016851E8AF
:1019B000031F026821F4907142E803132BB30168FE
:1019C00051E8031F026821F4907142E80313002BD1
:1019D000DAD11AE0016851E8051F026821F001011F
:1019E00042E80513DBB1016851E8051F026821F0E8
:1019F000010142E8051393B1016851E8051F02682F
:101A000021F0010142E805134BB1016851E8051FBF
:101A1000026821F0010142E80513002BDAD1016BC5
:101A2000012924D1016851E8031F026821F0100147
:101A300042E80313DBB1016851E8031F026821F09B
:101A4000100142E8031393B1016851E8031F0268D3
:101A500021F0100142E803134BB1016851E8031F64
:101A6000026821F0100142E80313002BDAD1202193
:101A700080F842100021016301684969490640F17C
:101A8000C380016851E8051F026821F0400142E867
:101A90000513DBB1016851E8051F026821F0400120
:101AA00042E8051393B1016851E8051F026821F06F
:101AB000400142E805134BB1016851E8051F026877
:101AC00021F0400142E80513002BDAD1C16B002957
:101AD00000F09A8042F64572C0F6000204460846BD
:101AE0004A63FEF765FC00283FF41AAEE06B416BD9
:101AF00002B0BDE8B04008470446FFF7D9FD00201A
:101B0000606402B0B0BD00BF891A00BF026852E82D
:101B1000032F036822F4907243E80325BDB30268E3
:101B200052E8032F036822F4907243E8032575B34B
:101B3000026852E8032F036822F4907243E80325F9
:101B40002DB3026852E8032F036822F4907243E831
:101B50000325002DDAD11AE0026852E8052F036848
:101B600022F0010243E80525DDB1026852E8052FA5
:101B7000036822F0010243E8052595B1026852E8A6
:101B8000052F036822F0010243E805254DB10268E4
:101B900052E8052F036822F0010243E80525002DD5
:101BA000DAD1202280F8422000220263026852E843
:101BB000032F036822F0100243E80325DDB1026819
:101BC00052E8032F036822F0100243E8032595B181
:101BD000026852E8032F036822F0100243E803254D
:101BE0004DB1026852E8032F036822F0100243E867
:101BF0000325002DDAD1022289B2426302B0BDE88A
:101C0000B040FFF753BD00BF02B0BDE8B040FFF7E2
:101C10004FBD00BF026A32F8023B6FF35F234B6097
:101C2000026295E5002804BF0120704710B5044604
:101C300090F8410028B9002084F84000204600F0C8
:101C400063F8242084F841002068D4E90212C368B4
:101C500023F40053C360036923F440531A43026121
:101C6000D4E904231143C268194341F20C639A4337
:101C70001143C1604169A26921F44071114343F6E7
:101C80000002C4F201029042416103D0FEF794FECB
:101C900002E000BFFEF7A4FED4E900231921484367
:101CA0009900B0FBF1F048F21F5CC5F2EB1CA0FB01
:101CB0000C314FF69C734909C0F6FF7301FB03001A
:101CC000322303EB0010A0FB0C03F02000EA5310BA
:101CD00000EB0110C3F34311084490601069202108
:101CE00020F490401061506920F02A005061D068C3
:101CF00040F40050D0600020606484F8411084F803
:101D00004210606310BD000070B586B040F600045C
:101D1000C4F201040068A4F54441002688420596F7
:101D2000CDE90366029601D006B070BD41F21800FD
:101D3000C4F20200416802AD41F4003141604168E3
:101D400001F4003101910199016841F00401016041
:101D50000068294600F004000190019804200290D8
:101D600002200390032005902046FEF77DFB08200B
:101D7000CDE90206204629460496FEF775FB26208B
:101D800000210022FEF7FEFC2620FEF7E9FC06B04B
:101D900070BD000090F84230202B07D100294FF091
:101DA000010318BF002A05D11846704702231846C0
:101DB000704700BF00230363816222218285C285B0
:101DC000436480F842100169006819B1C16841F4A8
:101DD0008071C160416941F001014161C16841F018
:101DE0002001C16018467047006844F20041C4F207
:101DF0000001884218BF704740F29000C2F2000014
:101E000002790178292A0BD14FF48072034623F816
:101E10000C2B29225A540131C9B200225A5409E02C
:101E2000302905D84B1C014403700A7302E000BF3F
:101E300000210170011D40F25010C2F20000012289
:101E4000FFF7A8BF2DE9F04381B0044690F84100A8
:101E5000202809D100294FF0010018BF002A07D11E
:101E600001B0BDE8F08300BF022001B0BDE8F083FF
:101E70000020606421201D460E4684F8410017466C
:101E8000FEF700FCA784E784A1688146B1F5805F76
:101E900002D1206900285DD037460020E28C2168FD
:101EA000002A5DD06A1C24D0002D4AD0804600BF95
:101EB0000868000608D4FEF7E5FBA0EB0900A8427D
:101EC0007AD82168C868F3E717B117F8010B04E066
:101ED00038F8020B00276FF35F204860E08C013870
:101EE000E084E08C0028E3D13AE000BF0A681206E3
:101EF00009D40A68120606D40A6812065CBF0A688A
:101F00005FEA0262F2D51FB117F8012B05E000BFAE
:101F100030F8022B00276FF35F224A60E28C013A0F
:101F2000E284E28C002AE4D11AE000BF30F8022BF0
:101F300000276FF35F224A60E28C013AE284E28C70
:101F400072B10A68120635D5002FEFD017F8012BB1
:101F5000F1E700BF00273046E28C2168002AA1D1BA
:101F6000086840061ED42DB3681C14D108684006CA
:101F70002AD40868400627D40868400624D4086894
:101F800040064FF00000F1D50DE000BF2068C168A9
:101F90000068400618D4FEF775FBA0EB0900A842C4
:101FA000F4D909E00020202184F8411001B0BDE8F7
:101FB000F08300BFFEF766FB0320202184F8411068
:101FC00001B0BDE8F08300BF0020202184F841105B
:101FD00001B0BDE8F083000070470000FEE700009C
:101FE000FEE700002DE9F04F87B0FEF74BFB40F213
:101FF0000414C2F200042168401A0A28C0F0748256
:10200000FEF740FB40F20003C2F20003D3E90212E4
:102010002060914280F0CA806431501A642838BF31
:10202000114642F634420029C4F2010200F0E88170
:10203000C1EB011202920A01C1EBC10601927200CA
:1020400003920D224A4301EB41040492A20005923F
:102050000B224AF200204A4301EB8107C0F24A40BA
:1020600006924FEA470C01EBC1084FEAC1094FEA5B
:10207000440A4FEA810B4FEA410E00250F22996076
:102080004B19B0FBF3F3013BB3F5803FC0F0C481C3
:102090000EEB0503B0FBF3F3013BB3F5803FC0F05B
:1020A000BD816319B0FBF3F3013BB3F5803FC0F092
:1020B000B7810BEB0503B0FBF3F3013BB3F5803FB6
:1020C000C0F0B0817B19B0FBF3F3013BB3F5803F67
:1020D000C0F0AA810AEB0503B0FBF3F3013BB3F5B3
:1020E000803FC0F0A3817319B0FBF3F3013BB3F55C
:1020F000803FC0F09D8109EB0503B0FBF3F3013B8A
:10210000B3F5803FC0F0968108EB0503B0FBF3F315
:10211000013BB3F5803FC0F08F810CEB0503B0FBB2
:10212000F3F3013BB3F5803FC0F08881069B2B445D
:10213000B0FBF3F3013BB3F5803FC0F08181059B19
:102140002B44B0FBF3F3013BB3F5803FC0F07A8141
:10215000049B2B44B0FBF3F3013BB3F5803FC0F08D
:102160007381039B2B44B0FBF3F3013BB3F5803F3A
:10217000C0F06C81029B2B44B0FBF3F3013BB3F541
:10218000803FC0F06581019B1D44B0FBF5F3013B2E
:10219000B3F5803FC0F05D810F231032C0F2010320
:1021A0009A427FF46DAF0022002352E140F29C81FD
:1021B000881A9246642888BFA1F1640A42F6344125
:1021C000BAF1000FC4F2010100F02081C2EB02114C
:1021D000642898BF6420C0EB0017C2EBC20801EB73
:1021E000070C4FEA4801C0EBC00701EB470106911D
:1021F0000D2100FB01F502FB015100EB40060591AA
:1022000002EB42018D0005EB86030B25049300FBD6
:1022100005F302FB053302EBC20B039302EB8203CF
:1022200000EBC00E5D000BEB0E0400EB800E019482
:1022300005EB4E044D00009408EB070BD70005EBAF
:102240004605314496005400120107EBC00903EB28
:102250000E0806EB800604EB400E02EB001040F285
:102260000002C2F20002C2F808A0ACF2DC52009FE9
:102270000292069AA7F57A77A2F5AF64059A039BB6
:102280000397019FA2F2145C049AA7F56177049763
:10229000A9F54877A2F596620597ABF52F77A0F5DB
:1022A000C8604AF2002BA3F24C430697A5F51675B9
:1022B000A8F5FA78A6F5C879A1F59676AEF1C80129
:1022C00096460190C0F24A4B4FEA0A1000270F22AF
:1022D00000900AEB0700BBFBF0F00138B0F5803F3F
:1022E000C0F0C880C819BBFBF0F00138B0F5803FE2
:1022F000C0F0C280F019BBFBF0F00138B0F5803FB0
:10230000C0F0BC8009EB0700BBFBF0F00138B0F572
:10231000803FC0F0B58008EB0700BBFBF0F0013850
:10232000B0F5803FC0F0AE80E819BBFBF0F001389B
:10233000B0F5803FC0F0A88006983844BBFBF0F0B1
:102340000138B0F5803FC0F0A18005983844BBFB50
:10235000F0F00138B0F5803FC0F09A80049838441E
:10236000BBFBF0F00138B0F5803FC0F093800398DC
:102370003844BBFBF0F00138B0F5803FC0F08C80F2
:10238000D819BBFBF0F00138B0F5803FC0F0868073
:102390000EEB0700BBFBF0F00138B0F5803FC0F05A
:1023A0007F800CEB0700BBFBF0F00138B0F5803FFD
:1023B000C0F07880E019BBFBF0F00138B0F5803F49
:1023C000C0F0728002983844BBFBF0F00138B0F5E1
:1023D000803FC0F06B8001983844BBFBF0F00138BF
:1023E000B0F5803FC0F063800F201032C0F20100D2
:1023F0008242009807447FF46CAF0022002056E030
:1024000000201060986007B0BDE8F08F00200860E1
:10241000986007B0BDE8F08F0F3A1AE00E3A18E066
:102420000D3A16E00C3A14E00B3A12E00A3A10E0CA
:10243000093A0EE0083A0CE0073A0AE0063A08E0EA
:10244000053A06E0043A04E0033A02E0023A00E00A
:10245000013A42F63447C4F2010740F2000047F85F
:102460000C2C47F8083CC2F20000C07D591C4843C0
:102470002CE000BF0F3A1AE00E3A18E00D3A16E0D1
:102480000C3A14E00B3A12E00A3A10E0093A0EE076
:10249000083A0CE0073A0AE0063A08E0053A06E096
:1024A000043A04E0033A02E0023A00E0013A42F65C
:1024B0003447C4F2010740F2000147F80C2C47F8FA
:1024C000080CC2F20001C97D0130484348F21F5197
:1024D000C5F2EB11A0FB010148093860002047F864
:1024E000100C012047F8200C07B0BDE8F08F000069
:1024F0002DE9F04F89B040F20006C2F20006F07EEE
:102500000138082800F25F81DFE810F00A0024009B
:102510003E0050005E0016005D015D012A0000BF14
:10252000B07E062804D1317DB07D814240F0088123
:102530000120708352E100BFF069C1B2652947D321
:1025400040F2501043F27041C2F20000C0F60001A8
:102550000B2235E1B07E062822D0032070836DE186
:1025600040F29004C2F200040120E070FEF78AF805
:10257000A06040F60040C4F2010044F208010122CC
:10258000FEF77AF81FE100BF40F29000C2F20000AF
:10259000807800284FF0010011D0B0750620B07689
:1025A0000020F07609B0BDE8F08F00BF40F2900047
:1025B000C2F20000807800284FF00000EDD1707565
:1025C0000520708330E100BFF069C6E90300FAE03E
:1025D000B5684AF20023C5EB051102912901C5EB4C
:1025E000C5040191610003910D21694305EB450785
:1025F0000491B90005910B21694305EB850C069107
:102600004FEA4C01079105EBC501C0F24A4308911E
:102610004FEAC5094FEA470A4FEA850B4FEA450ED4
:102620004FF000080F21F07505EB0802B3FBF2F242
:10263000013AB2F5803FC0F087800EEB0802B3FB91
:10264000F2F2013AB2F5803FC0F0808007EB080259
:10265000B3FBF2F2013AB2F5803F79D30BEB0802FB
:10266000B3FBF2F2013AB2F5803F73D30CEB0802F0
:10267000B3FBF2F2013AB2F5803F6DD30AEB0802E8
:10268000B3FBF2F2013AB2F5803F67D304EB0802E4
:10269000B3FBF2F2013AB2F5803F61D309EB0802D5
:1026A000B3FBF2F2013AB2F5803F5BD3089A4244A1
:1026B000B3FBF2F2013AB2F5803F55D3079A424498
:1026C000B3FBF2F2013AB2F5803F4FD3069A42448F
:1026D000B3FBF2F2013AB2F5803F49D3059A424486
:1026E000B3FBF2F2013AB2F5803F43D3049A42447D
:1026F000B3FBF2F2013AB2F5803F3DD3039A424474
:10270000B3FBF2F2013AB2F5803F37D3029A42446A
:10271000B3FBF2F2013AB2F5803F31D3019A904413
:10272000B3FBF8F2013AB2F5803F2AD30F22103101
:10273000C0F2010291427FF477AF0021002220E035
:102740000021F176A3E000BF0F391AE00E3918E03E
:102750000D3916E00C3914E00B3912E00A3910E09B
:1027600009390EE008390CE007390AE0063908E0BB
:10277000053906E0043904E0033902E0023900E0DB
:102780000139531C00F07F00584348F21F53C5F233
:10279000EB13A0FB030342F61440C4F201004161B5
:1027A000590982610162002101610121016040F249
:1027B000501043F25741C2F20000C0F600010E2251
:1027C0006423FFF73FFBB07E002101380428F17637
:1027D00031D8DFE800F00363335B290030694FF440
:1027E0008071F06040F60040C4F201000122012433
:1027F000FDF742FF40F20810C2F200000021FEF790
:1028000093FE40F2501043F24C41C2F20000C0F679
:1028100000010A2264233476FFF714FB0220B0760D
:1028200009B0BDE8F08F00BF0020F060FFF7DAFBD1
:10283000B06800283ED009B0BDE8F08F0024F460F5
:10284000FFF7D0FBB0680028F5D140F20810C2F2C3
:1028500000000021FEF7D6FE40F60040C4F2010061
:102860004FF480710022FDF707FF40F2501043F251
:102870004041C2F20000C0F600010B22642334760E
:10288000FFF7E0FAB47609B0BDE8F08FB07D70755F
:102890000520B07609B0BDE8F08F00BFFFF7A2FBBE
:1028A000D6E902018842C6D10020B07609B0BDE861
:1028B000F08F00BF727D40F6004443F2364043F291
:1028C0006645C4F20104C0F60000C0F6000532758A
:1028D000002A18BF012218BF054620464FF4007198
:1028E000FDF7CAFE40F25010C2F20000294609224C
:1028F0006423FFF7A7FA40F29000C2F2000080784C
:1029000020B10120B07609B0BDE8F08F40F2081088
:10291000C2F2000000210025FEF774FE20464FF4AD
:1029200080710022FDF7A8FE40F2501043F24041B2
:10293000C2F20000C0F600010B2264233576FFF7D7
:1029400081FAB57609B0BDE8F08F0000FEE700001F
:1029500080B586B0017828294FF00001ADF8141039
:10296000CDE90311ADF80810CDE9001140F0548114
:1029700042784FF0000C4FF0020122B1242A02D01D
:10298000262A03D126224FF0000E0AE08DF80C20F3
:1029900082784FF0010E002A4FF0030118BF242A5D
:1029A00026D142F0020203AB262A03F80EC040F003
:1029B0003381425C002A00F02F81292A02D10020B5
:1029C000C1E000BF01448DF800204A780120002AB0
:1029D00000F0AE82292A00F0B6808DF801208A78B6
:1029E000002A00F0A582292A6AD10220ABE000BFAC
:1029F000262A01D12622D4E78DF80D20C2784FF087
:102A0000020E002A4FF0040118BF242AC9D0262A3A
:102A1000F0D08DF80E2002794FF0030E002A4FF00F
:102A2000050118BF242ABCD0262AE3D08DF80F2038
:102A300042794FF0040E002A4FF0060118BF242AF5
:102A4000AFD0262AD6D08DF8102082794FF0050E0F
:102A5000002A4FF0070118BF242AA2D0262AC9D085
:102A60008DF81120C2794FF0060E002A4FF00801B0
:102A700018BF242A95D0262ABCD08DF81220027ABD
:102A80004FF0070E002A4FF0090118BF242A3FF427
:102A900088AF262AAED08DF81320427A4FF0080E68
:102AA000002A4FF00A0118BF242A3FF47AAF262AE1
:102AB000A0D08DF81420827A4FF0090E0B2170E718
:102AC0008DF80220CA78002A00F03282292A01D12A
:102AD000032038E08DF803200A79002A00F02882CC
:102AE000292A01D104202EE08DF804204A79002AF9
:102AF00000F01E82292A01D1052024E08DF805204E
:102B00008A79002A00F01482292A01D106201AE0CD
:102B10008DF80620CA79002A00F00A82292A01D1FC
:102B2000072010E08DF807200A7A002A00F00082C2
:102B3000292A01D1082006E08DF808204A7A002AC7
:102B400000F0F681092069460023292A0B5463D13D
:102B50009DF80020002A63D002310020A2F13A0340
:102B600013F10A0F5CD300EB800011F8013C02EB7B
:102B70004000A0F1300043B3A3F13A0212F10A0F72
:102B80004ED300EB80000A7803EB4000A0F1300048
:102B9000DAB1A2F13A0313F10A0F41D300EB80003E
:102BA0004B7802EB4000A0F1300073B1A3F13A0280
:102BB00012F10A0F34D300EB80008A7803EB400057
:102BC0003038002A01F10401C8D19DF80C106429A5
:102BD0002AD0532940F0AB819DF80D1043F2824278
:102BE0000029C0F6000241D0542951D19DF80E10A1
:102BF00000293FD053294BD19DF80F1000293DD01B
:102C0000502945D19DF8101000293BD044293FD1CF
:102C10009DF81110053236E0012006B080BD00BFDE
:102C2000032006B080BD00BF9DF80D1043F2B242F4
:102C3000C0F60002E1B1752940F079819DF80E10CF
:102C4000D1B1742940F073819DF80F10C1B1792979
:102C500040F06D819DF8101000293BD0792940F09B
:102C600066819DF81110053235E000BF01320AE09F
:102C7000013230E0023206E002322CE0033202E0A0
:102C8000033228E004321278914201D1002146E15A
:102C90009DF80D1043F28E42C0F60002A1B15429F6
:102CA00026D19DF80E1089B1462921D19DF80F102B
:102CB00071B157291CD19DF8101099B1442917D131
:102CC0009DF8111005320EE001320CE002320AE0EC
:102CD000033208E004321278914240F02881012149
:102CE0001DE100BF04321278914201D1022116E1A8
:102CF0009DF80D1043F28842C0F60002A1B154299C
:102D00001ED19DF80E1089B1422919D19DF80F10DE
:102D100071B1572914D19DF8101059B144290FD120
:102D20009DF81110053206E0013204E0023202E0A3
:102D3000033200E004321278914201D10321EEE027
:102D40009DF80D1043F2AC42C0F60002A1B1542927
:102D50001ED19DF80E1089B1532919D19DF80F107D
:102D600071B1542914D19DF8101059B152290FD1C5
:102D70009DF81110053206E0013204E0023202E053
:102D8000033200E004321278914201D10421C6E0FE
:102D90009DF80D1043F2A042C0F60002A1B15429E3
:102DA0001ED19DF80E1089B1532919D19DF80F102D
:102DB00071B1542914D19DF8101059B150290FD177
:102DC0009DF81110053206E0013204E0023202E003
:102DD000033200E004321278914201D105219EE0D5
:102DE0009DF80D1043F29A42C0F60002A1B1542999
:102DF0001ED19DF80E1089B1412919D19DF80F10EF
:102E000071B1542914D19DF8101059B14F290FD127
:102E10009DF81110053206E0013204E0023202E0B2
:102E2000033200E004321278914201D1062176E0AB
:102E30009DF80D1043F2A642C0F60002A1B154293C
:102E40001ED19DF80E1089B14D2919D19DF80F1092
:102E500071B1412914D19DF8101059B152290FD1E7
:102E60009DF81110053206E0013204E0023202E062
:102E7000033200E004321278914201D107214EE082
:102E80009DF80D1043F27C42C0F60002A1B1542916
:102E90001ED19DF80E1089B1512919D19DF80F103E
:102EA00071B1432914D19DF8101059B143290FD1A4
:102EB0009DF81110053206E0013204E0023202E012
:102EC000033200E004321278914201D1082126E059
:102ED0009DF80D1043F29442C0F60002A1B15429AE
:102EE00025D19DF80E1089B14D2920D19DF80F10E4
:102EF00071B141291BD19DF8101059B14E2916D13D
:102F00009DF81110053206E0013204E0023202E0C1
:102F1000033200E004321278914208D1092143F2D1
:102F2000D432C0F6000202EBC10149688847002094
:102F300006B080BD7047000070470000FDF7A8BBD9
:102F400070470000406A0021C185C184FEF7B0BB14
:102F500081B090F84210222921D183680246B3F54E
:102F6000805F09D152F8281F52F8183C002B63D01B
:102F700003685B680AE000BF52F8281F13B90369B1
:102F8000002BF5D003685B6803F07F030B701168BA
:102F900001311160C18D01390A04C18502D001B02F
:102FA000704700BF0168CA6822F02002CA60CA6880
:102FB00022F48072CA604A6922F001024A6120212B
:102FC00080F8421000214163026B012A3CD1016369
:102FD000016851E8031F026821F0100142E8031361
:102FE000DBB1016851E8031F026821F0100142E8DB
:102FF000031393B1016851E8031F026821F0100127
:1030000042E803134BB1016851E8031F026821F045
:10301000100142E80313002BDAD101680A68D206D6
:1030200006D5002200920A68009249680091009932
:10303000818D01B0FEF73ABB026852686FF35F22E0
:1030400021F8022B8162A5E701B0FEF7CDBE00009A
:1030500040F25010C2F20000FEF72CBBFEE7000069
:1030600098B0FDF723FB00240120CDE90644CDE90B
:103070000444019005904FF4E0104FF48031022594
:103080000A9001A8CDE90214CDE90851FDF7BCFC76
:1030900020B1EFF3108072B6FEE700BF0F20CDE93C
:1030A0000B054FF48060CDE90E040BA802210D94AE
:1030B000FDF7A4FB20B1EFF3108072B6FEE700BF6E
:1030C000002541F21800CDE90355CDE90155C4F2C0
:1030D0000200016840F6004441F0200101600168EF
:1030E000C4F2010401F020010B910B990168002248
:1030F00041F004010160016844F2083601F0040166
:103100000B910B99016841F008010160006844F2DD
:10311000083100F008000B900B982046FDF7ACFA40
:103120000120CDE902050220049001A92046019664
:10313000FDF79AF940F25010A4F54841C2F20000A0
:103140000C234FF4E13280E82600C0E90355C0E9C2
:103150000535C561FEF766FD20B1EFF3108072B64C
:10316000FEE700BF40F20009C2F2000940F2081079
:10317000B9F8023004F50051C2F200001795CDE90C
:103180001555CDE912550795B9F8002080E82600BD
:10319000C0E90335C0E90555FDF7B2FE20B1EFF3F4
:1031A000108072B6FEE700BF4FF48050149040F2DA
:1031B0000810C2F2000014A9FDF738FF20B1EFF3A8
:1031C000108072B6FEE700BF40F20810C2F20000A5
:1031D000FEF72AF920B1EFF3108072B6FEE700BFC8
:1031E00040F20810C2F2000012A9FDF749FE28B112
:1031F000EFF3108072B600BFFEE700BFB9F804100D
:103200006020CDE90B0140F208100025C2F2000059
:103210000BA90022CDE90D55CDE90F551195FEF70B
:1032200001F828B1EFF3108072B600BFFEE700BFCF
:103230004FF40050069040F20810C2F2000001A9BD
:103240000595CDE90355CDE901550895FDF7F2FD4A
:1032500020B1EFF3108072B6FEE700BF40F2081015
:10326000C2F20000FDF7B2FF40F25015C2F20005B5
:103270004FA1284609226423FEF7E4FD40F290079F
:10328000C2F20007391D284601224FF00108FEF75F
:1032900081FD20464FF4007100220026FDF7ECF975
:1032A00020464FF480710122FDF7E6F9032007F173
:1032B0003E0507F10C0A07F13F0B89F81A0000BF21
:1032C000FFF716F97878002858D03A7B7E70AAB1BB
:1032D000284600BF10F8311C0270B9B110F8302C2C
:1032E0004170DAB110F82F1C8270C9B310F82E2C7F
:1032F000C170011D002A0846ECD111E0294699F859
:103300001A000E70062810D110E000BF411C99F879
:103310001A000E70062808D108E000BF811C00BF0B
:1033200099F81A000E70062800D020B92846FFF739
:103330000FFB787810BB97F83E0068B1594600BF84
:1033400011F8332CA2B190422CD111F8010B0028B6
:10335000F6D1333900200CE00020514609E000BFCF
:10336000C11C99F81A000E700628DED1DEE700BFF6
:1033700033390978884218BF87F80180F878002827
:103380003FF49EAFFDF77EF9B968401AB0F57A7F39
:103390007FF696AF204644F208010022FE70FDF74A
:1033A0006BF98DE787F80180F8780028EAD187E784
:1033B00055415254204F4B0D0A0000000000000000
:1033C00000000000010203040607080900000000D5
:1033D0000102030482340008B9020008B234000874
:1033E000950200088E340008A50200088834000801
:1033F000E9020008AC340008FD020008A03400080F
:10340000110300089A34000875020008A634000869
:10341000C90200087C340008250300089434000821
:1034200045030008010202030405060708090A0B08
:103430000C0D0E0F1010444952204657440D0A003F
:103440004D4F544F52204F46460D0A004D4F544F9A
:1034500052204F4E0D0A004F4B3A204455545920EC
:103460005345540D0A00444952205245560D0A0056
:103470004552523A20445554590D0A005354514371
:103480004300535453504400535442574400535440
:103490004657440053544D414E00535441544F003D
:1034A00053545354500053544D41520053545354A9
:1034B0005200647574797900D83400080000002047
:1034C00030000000500100080835000830000020DE
:1034D0007007000070010008470063003200000020
:1034E000000000001027000010270000000000323C
:1034F00000000000000000000100000010000000BB
:0835000000127A000000000037
:04000005080000ED02
:00000001FF
